:03000000021047A4
:0C104700787FE4F6D8FD75812B02108E36
:10149C00D3EF9400EE94004007EF1F70F31E80F022
:0114AC00221D
:0D14FB001213C67FCC1213E07F440213E0F1
:101330001213C67FCC1213E07FBE1213E01213A962
:101340008F081213A9EFFEE508FFFDAC06EC120BA7
:0B1350002DE4FBFA79807841120A01BD
:01135B00226F
:1013C600D2B7C2B77FF7DFFED2B77F20DFFEA2B764
:0913D600E433FE7FF7DFFEAF06F1
:0113DF0022EB
:10147800C2B77E04DEFEEF24FF92B77E18DEFED2EE
:01148800B7AC
:011489002240
:1013F900C2B77F02DFFED2B77F02DFFEA2B7E433B6
:07140900FE7F18DFFEAF06B5
:0114100022B9
:0213E000AD0757
:1013E200E4FC7401A804088002C333D8FC5DFF1238
:0613F20014780CBC08ECAD
:0113F80022D2
:1013A900E4FDFC1213F9EF600D7401A80408800232
:0C13B900C333D8FC42050CBC08E9AF05AA
:0113C5002205
:1014AD00200304C2978002D2977F057E0012149C00
:0114BD00220C
:1014BE00200304C2968002D2967F057E0012149CF1
:0114CE0022FB
:0D14ED00A29692037F057E0012149CA203BC
:0114FA0022CF
:10143D00D2031214ADD2031214BEC2031214BEC2D3
:04144D00030214ADD5
:021290008F19B4
:10129200E4F51A74807E00A81A088006CEA2E7132D
:1012A200CE13D8F8FFEF551970047F0180027F003A
:1012B200EF24FFB392031214BED2031214ADC20381
:0C12C2001214AD051AE51AC3940840C7C9
:0112CE0022FD
:10141100D2031214BED2031214AD1214ED9202C201
:06142100031214ADA2024B
:0114270022A2
:10145100C2031214ADC2031214BED2031214ADC2E0
:04146100030214ADC1
:0F14CF00C2031214BED2031214ADD2030214BE14
:04146500C100C10100
:10148A00D2AFD2A8D288D2AAD28A75B810D2B2D292
:02149A00B3227B
:0300030002151DC6
:03151D00D20032C7
:03001300021520B3
:03152000D20132C3
:061517002D002B002E0048
:101303008F0812143D7F4E1212901214117F0C128B
:101313001290121411E50854F0240CFF12129012CB
:0D13230014117F081212901214110214CF41
:1011C1008F1512143D7F4E1212901214117F0C12C2
:1011D1001290121411E51554F0240CFF1212901202
:1011E10014117F081212901214117F0C1212901216
:1011F1001411E515C454F0240CFF121290121411AD
:0B1201007F081212901214110214CF8B
:031125002430FF74
:101128008F1812143D7F4E1212901214117F0D1257
:101138001290121411E51854F0240DFF1212901297
:1011480014117F091212901214117F0D12129012AD
:101158001411E518C454F0240DFF12129012141142
:0B1168007F091212901214110214CF24
:101386008B158A168917AB15AA16A917120BE7FF34
:10139600601012112874012517F517E43516F51695
:0313A60080E422BE
:101173007F987E3A12149C7F301213037F047E10F3
:1011830012149C7F301213037F647E0012149C7F21
:10119300301213037F647E0012149C7F201213030A
:1011A3007F281211C17F081211C17F011211C17F63
:0E11B300061211C17F0E1211C17F0C0211C174
:10135C008B298A2A892B7F401211C1AB29AA2AA971
:10136C002B120BE76013052BE52B7002052A14F9E1
:0A137C00120BE7FF12112880E22295
:06142800FDE433FCAF0CF3
:0F142E001FED1DEF75F040A42D2480FF0211C1AA
:07151000EF2430FF02112857
:080D31008F0B8E0A8D098C085E
:100D3900E4FFFEFDFCAB0BAA0AA909A808120A9E4A
:100D4900E50DFD7C00AF0C502112142E7BFF7A15A6
:100D59007917121386AF0BAE0AAD09AC08120B173F
:100D69008F0B8E0A8D098C08800C12142E7BFF7A4A
:100D7900157919121386AF0BAE0AAD09AC08120B1F
:100D890066AB07AA067C007D64120C007C007D0A14
:100D9900120C008D0E7C007D0AAF03AE02120C000E
:100DA9007C007D0A120C008D0FAF0BAE0AAD09ACA9
:100DB90008120B667C007D0A120C008D10E50D24CB
:100DC90001121428E50E121125E50D24021214282A
:100DD900E50F121125E50D2403121428E51024301E
:100DE900FF121128E50D24041214287BFF7A1579C6
:100DF9001B1213867F007E407D1C7C46AB0BAA0A22
:100E0900A909A8081208F8120B66E47B107A27F9D9
:100E1900F8120C91AC00AD01AE02AF03E47BE87AA5
:100E290003F9F8120C91E47B0AFAF9F8120C91AF64
:100E3900038F117F007E407D1C7C46AB0BAA0AA95B
:100E490009A8081208F8120B66E47B107A27F9F84A
:100E5900120C91AC00AD01AE02AF03E47B64FAF968
:100E6900F8120C91E47B0AFAF9F8120C91AF038F8E
:100E7900127F007E407D1C7C46AB0BAA0AA909A8FB
:100E8900081208F8120B66E47B107A27F9F8120C9D
:100E990091AC00AD01AE02AF03E47B0AFAF9F81296
:100EA9000C91E47B0AFAF9F8120C91AF038F137FC6
:100EB900007E407D1C7C46AB0BAA0AA909A8081232
:100EC90008F8120B66E47B107A27F9F8120C91AC3A
:100ED90000AD01AE02AF03E47B0AFAF9F8120C91F6
:100EE900AF038F14E50D2405121428E5112430FFF2
:100EF900121128E50D2406121428E5122430FF12D8
:100F09001128E50D2407121428E5132430FF1211C6
:100F190028E50D2408121428E5142430FF021128AD
:0C1469000227D8F00225271002212710CE
:1010D300D2AFD2A9758901AE27AF28AB07AA06E420
:1010E300C39BFFE49AFE74019400FDE49400FCE4C6
:1010F300FB7A01F9F812120C8F8CAE27AF28AB07DD
:10110300AA06E4C39BFFE49AFE74019400FDE494F1
:1011130000FCE4FB7A01F9F812120CAF038F8AD2B8
:021123008C221C
:03000B000212CF0F
:1012CF00C0E0C0D0C28CC3E430A0129522F524E454
:1012DF009521F523F58C85248AC2A080109526F5DB
:1012EF0024E49525F523F58C85248AD2A0D28CD0C1
:0412FF00D0D0E03239
:0F14DE00438920758DF3758780D28E75984022D3
:081508008F993099FDC2992270
:1012500054454D503A0052696768742056004C65F9
:1012600066742056002020202020202020202020CE
:101270002020202020004669726520416C61726D3B
:101280000052696768742058004C656674205800E5
:02147500C104B0
:100F29001214FB7F607EEA12149C12148A1210D3E9
:100F39001214DE1211737D017C007F0112142E7BC5
:100F4900FF7A1279501213867D097C007F021214F0
:100F59002E7BFF7A1279561213867D017C007F025F
:100F690012142E7BFF7A12795E121386E525FF1281
:100F79001508AF26E5261215082004191214FB12CC
:100F890013308F1E8E1D8D1C8C1B750C01750D0762
:100F9900120D3180247D017C007F0112142E7BFF0C
:100FA9007A1279651213867D017C007F0112142E55
:100FB9007BFF7A12797612138620003020012DE406
:100FC900FFFE7D487C43AB1EAA1DA91CA81B120865
:100FD900F87B007A80795478C5120807120B668E5F
:100FE900258F267F507EC312149C80807525087535
:100FF900269875800FD2B47F887E1312149C758051
:10100900F0C2B47F887E1312149C3000147D097CD1
:10101900007F0212142E7BFF7A127981121386D275
:1010290004200103020F757D017C007F0212142E3A
:0E1039007BFF7A127989121386D204020F759A
:10080000020BD2E86480F8E933E83360110460F049
:10081000ED33EC337009E8FCE9FDEAFEEBFF22045E
:1008200060DED3EB9FEA9EE99DE8C2E78CF0C2F759
:1008300095F0400CE8CCF8E9CDF9EACEFAEBCFFB25
:10084000120B9D85D0F05804700320D5B3E80470D6
:10085000075002B2D5020BDC92D5EC0460F7E4CC71
:10086000C0E0C398F8603B94186008400DD0E0FBEE
:10087000020BB4E4FBFAC9FC8028E830E406E4C9C2
:10088000FBE4CAFCE830E305E4C9CACBFCE8540742
:100890006010F8C3E913F9EA13FAEB13FBEC13FC4D
:1008A000D8F130F52FC3E49CFCEF9BFFEE9AFEEDF0
:1008B00099FDD0E0FBEF4E4D4C701222DB03020B92
:1008C000D9EC2CFCEF33FFEE33FEED33FDED30E7DA
:1008D000EB020BB4EF2BFFEE3AFEED39FDD0E0FB5F
:1008E00050130BBB0003020BDCED13FDEE13FEEF08
:0808F00013FFEC13FC020BB432
:1008F800EC4D6011E8497017ED33EC3304600DE4FA
:10090800FCFFFEFD22E933E8330470F8020BD21233
:100918000B9D58046009E4CC248150062850090234
:100928000BDC284003020BD9C0E0EB4A7044B980C5
:1009380006D0E0FB020BC8EF4E701CBD8008EBFF31
:10094800EAFEE9FD80EBE98DF0A4FEE5F00209E19D
:10095800E9CDF9EAFEEBFFEF89F0A4FCE5F0CE89DA
:10096800F0A42EFFE435F0CD89F0A42DFEE435F097
:100978008067EF4E7005BD80D780C3EF8BF0A4ACC5
:10098800F0EE8BF0A42CFCE435F0F8EF8AF0A42C00
:10099800E5F038FCE433CB8DF0A42CFCE5F03BF813
:1009A800EE8AF0A42CFCE5F038F8E433CF89F0A403
:1009B8002CFCE5F038CF3400CE89F0A42FFFE5F009
:1009C8003EFEE433C98DF0A42EFEE5F039CD8AF061
:1009D800A42FFFE5F03EFEE43DFD33D0E0FB5007D9
:1009E8000BBB000F020BDCEC2CFCEF33FFEE33FEED
:0609F800ED33FD020BB41B
:1009FE00020BDCEC5D046005E859047003020BD2B7
:100A0E00120B9D580460F6EC4860F2EC7004FDFE8B
:100A1E00FF22C860DB2481C85009C39860025006CB
:100A2E00020BD99850CAF582E9294B4A7005AB8260
:100A3E00020BC875F0007C1A7880C3EF9BEE9AED1E
:100A4E0099400DC3EF9BFFEE9AFEED99FDE842F043
:100A5E00DC23ACF0D0E0FFD0E0FED0E0FDAB822096
:100A6E00E7101BEB60BAEC2CFCEF33FFEE33FEED20
:100A7E0033FD020BB4E803F830E705C0F075F00063
:100A8E00EF2FFFEE33FEED33FD40B830E7C280AA04
:100A9E0074F8CC6480CCC86480C8F58204604FC3FF
:100AAE00EB9FF5F0EA9E42F0E99D42F0E89C45F09E
:100ABE00603C501DE5825FFFE582D313CB5BCBF428
:100ACE002B5582FB50280ABA002409B90020088051
:100ADE001DE5825BFBE582D313CF5FCFF4C3132FEB
:100AEE005582FF50090EBE00050DBD00010CC3EB73
:100AFE009FF5F0EA9E42F0E99D42F0E89C45F060D9
:090B0E0007CC4820E701B3EC22FA
:100B1700ED33EC33600A047003BD8004ECB2E7FCEC
:010B270022AB
:100B280075F020800E75F010800575F0087D007E48
:100B3800007F003392D530D503120D23EC334010DB
:100B4800EF33FFEE33FEED33FDEC33FCD5F0ED2251
:0E0B5800E5F0247EA2D513CC92E7CDCEFF228D
:100B6600EDD2E7CD33EC3392D524814006E4FFFE87
:100B7600FDFC22FCE4CFCECDCC24E0501174FF80E6
:100B8600EDC3CC13CCCD13CDCE13CECF13CF047083
:070B9600F030D5DE020D2353
:100B9D00E9D2E7C933E833F892D5EDD2E7CD33EC9E
:070BAD0033FC5002B2D52217
:100BB400EC30E7100FBF000C0EBE00080DBD0004A2
:100BC4000BEB6014A2D5EB13FCED92E7FD2274FF4E
:100BD400FCFDFEFF22E480F8A2D574FF13FC7D80A7
:030BE400E480EFBB
:10105300020F29E493A3F8E493A34003F68001F27B
:1010630008DFF48029E493A3F85407240CC8C3339E
:10107300C4540F4420C8834004F456800146F6DF6D
:10108300E4800B0102040810204080901465E47E84
:10109300019360BCA3FF543F30E509541FFEE49362
:1010A300A360010ECF54C025E060A840B8E493A329
:1010B300FAE493A3F8E493A3C8C582C8CAC583CA54
:1010C300F0A3C8C582C8CAC583CADFE9DEE780BE0C
:011477000074
:100BE700BB010689828A83E0225002E722BBFE020C
:090BF700E32289828A83E493223F
:100C0000BC000BBE0029EF8DF084FFADF022E4CCD8
:100C1000F875F008EF2FFFEE33FEEC33FCEE9DECA1
:100C2000984005FCEE9DFE0FD5F0E9E4CEFD22EDE7
:100C3000F8F5F0EE8420D21CFEADF075F008EF2F31
:100C4000FFED33FD4007985006D5F0F222C398FD22
:050C50000FD5F0EA22BF
:100C550075F008758200EF2FFFEE33FECD33CDCC56
:100C650033CCC58233C5829BED9AEC99E5829840D9
:100C75000CF582EE9BFEED9AFDEC99FC0FD5F0D6B6
:100C8500E4CEFBE4CDFAE4CCF9A88222B800C1B9E0
:100C95000059BA002DEC8BF084CFCECDFCE5F0CB1E
:100CA500F97818EF2FFFEE33FEED33FDEC33FCEB57
:100CB50033FB10D703994004EB99FB0FD8E5E4F912
:100CC500FA227818EF2FFFEE33FEED33FDEC33FCFF
:100CD500C933C910D7059BE99A4007EC9BFCE99AF3
:100CE500F90FD8E0E4C9FAE4CCFB2275F010EF2F38
:100CF500FFEE33FEED33FDCC33CCC833C810D70738
:100D05009BEC9AE899400AED9BFDEC9AFCE899F872
:0E0D15000FD5F0DAE4CDFBE4CCFAE4C8F92205
:10120C00C2D5E830E70FB2D5E4C39BFBE49AFAE40D
:10121C0099F9E498F8EC30E717B2D5121242120C97
:10122C0091E4C39BFBE49AFAE499F9E498F88003FF
:10123C00120C9130D50DE4C39FFFE49EFEE49DFD9E
:04124C00E49CFC2200
:0E0D2300C3E49FFFE49EFEE49DFDE49CFC22E1
:00000001FF
