:0300000002101AD1
:0C101A00787FE4F6D8FD75812B02106190
:10144D00D3EF9400EE94004007EF1F70F31E80F071
:01145D00226C
:0D14BD0012138A7FCC1213A47F440213A4E3
:1012D00012138A7FCC1213A47FBE1213A412136DB3
:1012E0008F0812136DEFFEE508FFFDAC06EC120B44
:0B12F0002DE4FBFA79807841120A011E
:0112FB0022D0
:10138A00D2B7C2B77FF7DFFED2B77F20DFFEA2B7A0
:09139A00E433FE7FF7DFFEAF062D
:0113A3002227
:10142900C2B77E04DEFEEF24FF92B77E18DEFED23D
:01143900B7FB
:01143A00228F
:1013BD00C2B77F02DFFED2B77F02DFFEA2B7E433F2
:0713CD00FE7F18DFFEAF06F2
:0113D40022F6
:0213A400AD0793
:1013A600E4FC7401A804088002C333D8FC5DFF1274
:0613B60014290CBC08EC38
:0113BC00220E
:10136D00E4FDFC1213BDEF600D7401A804088002AA
:0C137D00C333D8FC42050CBC08E9AF05E6
:011389002241
:10145E00200304C2978002D2977F057E0012144D9E
:01146E00225B
:10146F00200304C2968002D2967F057E0012144D8F
:01147F00224A
:0D14AF00A29692037F057E0012144DA20349
:0114BC00220D
:10140100D20312145ED20312146FC20312146FC2FC
:041411000302145E60
:021264008F19E0
:10126600E4F51A74807E00A81A088006CEA2E71359
:10127600CE13D8F8FFEF551970047F0180027F0066
:10128600EF24FFB3920312146FD20312145EC2034B
:0C12960012145E051AE51AC3940840C744
:0112A2002229
:1013D500D20312146FD20312145E1214AF9202C21A
:0613E5000312145EA202D7
:0113EB0022DF
:10141500C20312145EC20312146FD20312145EC209
:041425000302145E4C
:0F149100C20312146FD20312145ED20302146F3F
:04148000C100C101E5
:10143B00D2AFD2A8D288D2AAD28A75B805D2B2D2EC
:02144B00B322CA
:030003000214DF05
:0314DF00D2003206
:030013000214E2F2
:0314E200D2013202
:0614D9002D002B002E0087
:1012A3008F081214017F4E1212641213D57F0C1291
:1012B30012641213D5E50854F0240CFF12126412C1
:0D12C30013D57F081212641213D502149186
:101194008F151214017F4E1212641213D57F0C1294
:1011A40012641213D5E51554F0240CFF12126412C4
:1011B40013D57F081212641213D57F0C1212641215
:1011C40013D5E515C454F0240CFF1212641213D580
:0B11D4007F081212641213D502149160
:0310F8002430FFA2
:1010FB008F181214017F4E1212641213D57F0D122A
:10110B0012641213D5E51854F0240DFF1212641259
:10111B0013D57F091212641213D57F0D12126412AC
:10112B0013D5E518C454F0240DFF1212641213D515
:0B113B007F091212641213D5021491F8
:10134A008B158A168917AB15AA16A917120BE7FF70
:10135A0060101210FB74012517F517E43516F516FF
:03136A0080E422FA
:101146007F987E3A12144D7F301212A37F047E10D0
:1011560012144D7F301212A37F647E0012144D7F4D
:10116600301212A37F647E0012144D7F201212A348
:101176007F281211947F081211947F011211947F17
:0E118600061211947F0E1211947F0C02119428
:1012FC008B298A2A892B7F40121194AB29AA2AA9FF
:10130C002B120BE76013052BE52B7002052A14F941
:0A131C00120BE7FF1210FB80E22223
:0613EC00FDE433FCAF0C30
:0F13F2001FED1DEF75F040A42D2480FF02119414
:0714D200EF2430FF0210FBC4
:080D31008F0B8E0A8D098C085E
:100D3900E4FFFEFDFCAB0BAA0AA909A808120A9E4A
:100D4900E50DFD7C00AF0C50211213F27BFF7A14E4
:100D590079D912134AAF0BAE0AAD09AC08120B17B9
:100D69008F0B8E0A8D098C08800C1213F27BFF7A87
:100D79001479DB12134AAF0BAE0AAD09AC08120B9A
:100D890066AB07AA067C007D64120C007C007D0A14
:100D9900120C008D0E7C007D0AAF03AE02120C000E
:100DA9007C007D0A120C008D0FAF0BAE0AAD09ACA9
:100DB90008120B667C007D0A120C008D10E50D24CB
:100DC900011213ECE50E1210F8E50D24021213ECD2
:100DD900E50F1210F8E50D24031213ECE510243089
:100DE900FF1210FBE50D24041213EC7BFF7A147932
:100DF900DD12134A7F007E407D1C7C46AB0BAA0A9C
:100E0900A909A8081208F8120B66E47B107A27F9D9
:100E1900F8120C91AC00AD01AE02AF03E47BE87AA5
:100E290003F9F8120C91E47B0AFAF9F8120C91AF64
:100E3900038F117F007E407D1C7C46AB0BAA0AA95B
:100E490009A8081208F8120B66E47B107A27F9F84A
:100E5900120C91AC00AD01AE02AF03E47B64FAF968
:100E6900F8120C91E47B0AFAF9F8120C91AF038F8E
:100E7900127F007E407D1C7C46AB0BAA0AA909A8FB
:100E8900081208F8120B66E47B107A27F9F8120C9D
:100E990091AC00AD01AE02AF03E47B0AFAF9F81296
:100EA9000C91E47B0AFAF9F8120C91AF038F137FC6
:100EB900007E407D1C7C46AB0BAA0AA909A8081232
:100EC90008F8120B66E47B107A27F9F8120C91AC3A
:100ED90000AD01AE02AF03E47B0AFAF9F8120C91F6
:100EE900AF038F14E50D24051213ECE5112430FF2F
:100EF9001210FBE50D24061213ECE5122430FF1243
:100F090010FBE50D24071213ECE5132430FF121032
:100F1900FBE50D24081213ECE5142430FF0210FB45
:0C1484000227B1E00225271002212710EA
:1010A600D2AFD2A9758901AE27AF28AB07AA06E44D
:1010B600C39BFFE49AFE74019400FDE49400FCE4F3
:1010C600FB7A01F9F81211DF8F8CAE27AF28AB0738
:1010D600AA06E4C39BFFE49AFE74019400FDE4941F
:1010E60000FCE4FB7A01F9F81211DFAF038F8AD214
:0210F6008C224A
:03000B00021223BB
:10122300C0E0C0D0C28CC374209526F522744E95BD
:1012330025F521C3E430A0129522F524E49521F588
:1012430023F58C85248AC2A080109526F524E49585
:1012530025F523F58C85248AD2A0D28CD0D0D0E07A
:011263003258
:0F14A000438920758DF3758780D28E7598402211
:0814CA008F993099FDC29922AF
:1013260054454D503A0052696768742056004C6522
:10133600667420560052696768742058004C6566CA
:0413460074205800B7
:100F29001214BD7F607EEA12144D12143B1210A6F2
:100F39001214A01211467D017C007F011213F27B6D
:100F4900FF7A13792612134A7D097C007F02121356
:100F5900F27BFF7A13792C12134A7D017C007F0200
:100F69001213F27BFF7A13793412134AE525FF1223
:100F790014CAAF26E5261214CA1214BD1212D08F54
:100F89001E8E1D8D1C8C1B750C01750D07120D31E4
:100F990020003020012DE4FFFE7D7A7C43AB1EAAA0
:100FA9001DA91CA81B1208F87B007A4079B578C5E1
:100FB900120807120B668E258F267F507EC31214E6
:100FC9004D80A975250875269875800FD2B47F883C
:100FD9007E1312144D7580F0C2B47F887E131214EB
:100FE9004D3000127D097C007F021213F27BFF7ADB
:100FF90013793B12134A200103020F757D017C000E
:101009007F021213F27BFF7A13794312134A020FFC
:011019007561
:10080000020BD2E86480F8E933E83360110460F049
:10081000ED33EC337009E8FCE9FDEAFEEBFF22045E
:1008200060DED3EB9FEA9EE99DE8C2E78CF0C2F759
:1008300095F0400CE8CCF8E9CDF9EACEFAEBCFFB25
:10084000120B9D85D0F05804700320D5B3E80470D6
:10085000075002B2D5020BDC92D5EC0460F7E4CC71
:10086000C0E0C398F8603B94186008400DD0E0FBEE
:10087000020BB4E4FBFAC9FC8028E830E406E4C9C2
:10088000FBE4CAFCE830E305E4C9CACBFCE8540742
:100890006010F8C3E913F9EA13FAEB13FBEC13FC4D
:1008A000D8F130F52FC3E49CFCEF9BFFEE9AFEEDF0
:1008B00099FDD0E0FBEF4E4D4C701222DB03020B92
:1008C000D9EC2CFCEF33FFEE33FEED33FDED30E7DA
:1008D000EB020BB4EF2BFFEE3AFEED39FDD0E0FB5F
:1008E00050130BBB0003020BDCED13FDEE13FEEF08
:0808F00013FFEC13FC020BB432
:1008F800EC4D6011E8497017ED33EC3304600DE4FA
:10090800FCFFFEFD22E933E8330470F8020BD21233
:100918000B9D58046009E4CC248150062850090234
:100928000BDC284003020BD9C0E0EB4A7044B980C5
:1009380006D0E0FB020BC8EF4E701CBD8008EBFF31
:10094800EAFEE9FD80EBE98DF0A4FEE5F00209E19D
:10095800E9CDF9EAFEEBFFEF89F0A4FCE5F0CE89DA
:10096800F0A42EFFE435F0CD89F0A42DFEE435F097
:100978008067EF4E7005BD80D780C3EF8BF0A4ACC5
:10098800F0EE8BF0A42CFCE435F0F8EF8AF0A42C00
:10099800E5F038FCE433CB8DF0A42CFCE5F03BF813
:1009A800EE8AF0A42CFCE5F038F8E433CF89F0A403
:1009B8002CFCE5F038CF3400CE89F0A42FFFE5F009
:1009C8003EFEE433C98DF0A42EFEE5F039CD8AF061
:1009D800A42FFFE5F03EFEE43DFD33D0E0FB5007D9
:1009E8000BBB000F020BDCEC2CFCEF33FFEE33FEED
:0609F800ED33FD020BB41B
:1009FE00020BDCEC5D046005E859047003020BD2B7
:100A0E00120B9D580460F6EC4860F2EC7004FDFE8B
:100A1E00FF22C860DB2481C85009C39860025006CB
:100A2E00020BD99850CAF582E9294B4A7005AB8260
:100A3E00020BC875F0007C1A7880C3EF9BEE9AED1E
:100A4E0099400DC3EF9BFFEE9AFEED99FDE842F043
:100A5E00DC23ACF0D0E0FFD0E0FED0E0FDAB822096
:100A6E00E7101BEB60BAEC2CFCEF33FFEE33FEED20
:100A7E0033FD020BB4E803F830E705C0F075F00063
:100A8E00EF2FFFEE33FEED33FD40B830E7C280AA04
:100A9E0074F8CC6480CCC86480C8F58204604FC3FF
:100AAE00EB9FF5F0EA9E42F0E99D42F0E89C45F09E
:100ABE00603C501DE5825FFFE582D313CB5BCBF428
:100ACE002B5582FB50280ABA002409B90020088051
:100ADE001DE5825BFBE582D313CF5FCFF4C3132FEB
:100AEE005582FF50090EBE00050DBD00010CC3EB73
:100AFE009FF5F0EA9E42F0E99D42F0E89C45F060D9
:090B0E0007CC4820E701B3EC22FA
:100B1700ED33EC33600A047003BD8004ECB2E7FCEC
:010B270022AB
:100B280075F020800E75F010800575F0087D007E48
:100B3800007F003392D530D503120D23EC334010DB
:100B4800EF33FFEE33FEED33FDEC33FCD5F0ED2251
:0E0B5800E5F0247EA2D513CC92E7CDCEFF228D
:100B6600EDD2E7CD33EC3392D524814006E4FFFE87
:100B7600FDFC22FCE4CFCECDCC24E0501174FF80E6
:100B8600EDC3CC13CCCD13CDCE13CECF13CF047083
:070B9600F030D5DE020D2353
:100B9D00E9D2E7C933E833F892D5EDD2E7CD33EC9E
:070BAD0033FC5002B2D52217
:100BB400EC30E7100FBF000C0EBE00080DBD0004A2
:100BC4000BEB6014A2D5EB13FCED92E7FD2274FF4E
:100BD400FCFDFEFF22E480F8A2D574FF13FC7D80A7
:030BE400E480EFBB
:10102600020F29E493A3F8E493A34003F68001F2A8
:1010360008DFF48029E493A3F85407240CC8C333CB
:10104600C4540F4420C8834004F456800146F6DF9A
:10105600E4800B0102040810204080901480E47E96
:10106600019360BCA3FF543F30E509541FFEE4938F
:10107600A360010ECF54C025E060A840B8E493A356
:10108600FAE493A3F8E493A3C8C582C8CAC583CA81
:10109600F0A3C8C582C8CAC583CADFE9DEE780BE39
:01149000005B
:100BE700BB010689828A83E0225002E722BBFE020C
:090BF700E32289828A83E493223F
:100C0000BC000BBE0029EF8DF084FFADF022E4CCD8
:100C1000F875F008EF2FFFEE33FEEC33FCEE9DECA1
:100C2000984005FCEE9DFE0FD5F0E9E4CEFD22EDE7
:100C3000F8F5F0EE8420D21CFEADF075F008EF2F31
:100C4000FFED33FD4007985006D5F0F222C398FD22
:050C50000FD5F0EA22BF
:100C550075F008758200EF2FFFEE33FECD33CDCC56
:100C650033CCC58233C5829BED9AEC99E5829840D9
:100C75000CF582EE9BFEED9AFDEC99FC0FD5F0D6B6
:100C8500E4CEFBE4CDFAE4CCF9A88222B800C1B9E0
:100C95000059BA002DEC8BF084CFCECDFCE5F0CB1E
:100CA500F97818EF2FFFEE33FEED33FDEC33FCEB57
:100CB50033FB10D703994004EB99FB0FD8E5E4F912
:100CC500FA227818EF2FFFEE33FEED33FDEC33FCFF
:100CD500C933C910D7059BE99A4007EC9BFCE99AF3
:100CE500F90FD8E0E4C9FAE4CCFB2275F010EF2F38
:100CF500FFEE33FEED33FDCC33CCC833C810D70738
:100D05009BEC9AE899400AED9BFDEC9AFCE899F872
:0E0D15000FD5F0DAE4CDFBE4CCFAE4C8F92205
:1011DF00C2D5E830E70FB2D5E4C39BFBE49AFAE43B
:1011EF0099F9E498F8EC30E717B2D5121215120CF2
:1011FF0091E4C39BFBE49AFAE499F9E498F880032D
:10120F00120C9130D50DE4C39FFFE49EFEE49DFDCB
:04121F00E49CFC222D
:0E0D2300C3E49FFFE49EFEE49DFDE49CFC22E1
:00000001FF
