:03000000020E31BC
:0C0E3100787FE4F6D8FD758130020E7861
:10127B00D3EF9400EE94004007EF1F70F31E80F045
:01128B002240
:0D12DA001211A47FCC1211BE7F440211BE80
:10110E001211A47FCC1211BE7FBE1211BE12118716
:10111E008F2D121187EFFEE52DFFFDAC06EC120AA6
:0B112E0035E4FBFA79807841120909D2
:011139002293
:1011A400D2B7C2B77FF7DFFED2B77F20DFFEA2B788
:0911B400E433FE7FF7DFFEAF0615
:0111BD00220F
:10125700C2B77E04DEFEEF24FF92B77E18DEFED211
:01126700B7CF
:011268002263
:1011D700C2B77F02DFFED2B77F02DFFEA2B7E433DA
:0711E700FE7F18DFFEAF06DA
:0111EE0022DE
:0211BE00AD077B
:1011C000E4FC7401A804088002C333D8FC5DFF125C
:0611D00012570CBC08ECF4
:0111D60022F6
:10118700E4FDFC1211D7EF600D7401A8040880027A
:0C119700C333D8FC42050CBC08E9AF05CE
:0111A3002229
:10128C00200204C2978002D2977F057E0012127B47
:01129C00222F
:10129D00200304C2968002D2967F057E0012127B37
:0112AD00221E
:0D12CC00A29692047F057E0012127BA20400
:0112D90022F2
:10121B00D20212128CD20312129DC20312129DC261
:04122B000202128C1D
:02103A008F2BFA
:10103C00E4F52C74807E00A82C088006CEA2E71361
:10104C00CE13D8F8FFEF552B70047F0180027F0080
:10105C00EF24FFB3920312129DD20212128CC20221
:0C106C0012128C052CE52CC3940840C720
:011078002255
:1011EF00D20312129DD20212128C1212CC9205C28D
:0611FF000212128CA20591
:0112050022C6
:10122F00C20212128CC20312129DD20212128CC26F
:04123F000202128C09
:0F12AE00C20312129DD20212128CD20302129DA1
:0612FE002D002B002E0064
:1010E1008F2E12121B7F4E12103A1211EF7F0C122B
:1010F100103A1211EFE52E54F0240CFF12103A129F
:0D11010011EF7F0812103A1211EF0212AE2A
:100FAB008F2F12121B7F4E12103A1211EF7F0C1261
:100FBB00103A1211EFE52F54F0240CFF12103A12D5
:100FCB0011EF7F0812103A1211EF7F0C12103A1228
:100FDB0011EFE52FC454F0240CFF12103A1211EF4D
:0B0FEB007F0812103A1211EF0212AE44
:030F0F002430FF8C
:100F12008F3012121B7F4E12103A1211EF7F0D12F8
:100F2200103A1211EFE53054F0240DFF12103A126C
:100F320011EF7F0912103A1211EF7F0D12103A12BF
:100F420011EFE530C454F0240DFF12103A1211EFE4
:0B0F52007F0912103A1211EF0212AEDC
:101164008B1D8A1E891FAB1DAA1EA91F120AEFFF21
:101174006010120F127401251FF51FE4351EF51EB1
:0311840080E422E2
:100F5D007F987E3A12127B7F301210E17F047E1053
:100F6D0012127B7F301210E17F647E0012127B7FA4
:100F7D00301210E17F647E0012127B7F201210E18F
:100F8D007F28120FAB7F08120FAB7F01120FAB7FC3
:0E0F9D0006120FAB7F0E120FAB7F0C020FABD4
:10113A008B258A2689277F40120FABAB25AA26A9C1
:10114A0027120AEF60130527E5277002052614F90E
:0A115A00120AEFFF120F1280E222CA
:06120600FDE433FCAF0C17
:0F120C001FED1DEF75F040A42D2480FF020FABE6
:0712F700EF2430FF020F128B
:080C39008F0B8E0A8D098C0857
:100C4100E4FFFEFDFCAB0BAA0AA909A8081209A63C
:100C5100E50DFD7C00AF0C502112120C7BFF7A12C6
:100C610079FE121164AF0BAE0AAD09AC08120A1F6E
:100C71008F0B8E0A8D098C08800C12120C7BFF7A67
:100C8100137900121164AF0BAE0AAD09AC08120A58
:100C91006EAB07AA067C007D64120B087C007D0AFE
:100CA100120B088D0E7C007D0AAF03AE02120B08F9
:100CB1007C007D0A120B088D0FAF0BAE0AAD09AC9B
:100CC10008120A6E7C007D0A120B088D10E50D24B6
:100CD10001121206E50E120F0FE50D240212120683
:100CE100E50F120F0FE50D2403121206E510243053
:100CF100FF120F12E50D24041212067BFF7A1379FD
:100D0100021211647F007E407D1C7C46AB0BAA0A57
:100D1100A909A808120800120A6EE47B107A27F9C3
:100D2100F8120B99AC00AD01AE02AF03E47BE87A97
:100D310003F9F8120B99E47B0AFAF9F8120B99AF4F
:100D4100038F117F007E407D1C7C46AB0BAA0AA954
:100D510009A808120800120A6EE47B107A27F9F834
:100D6100120B99AC00AD01AE02AF03E47B64FAF95A
:100D7100F8120B99E47B0AFAF9F8120B99AF038F79
:100D8100127F007E407D1C7C46AB0BAA0AA909A8F4
:100D910008120800120A6EE47B107A27F9F8120B88
:100DA10099AC00AD01AE02AF03E47B0AFAF9F81287
:100DB1000B99E47B0AFAF9F8120B99AF038F137FB1
:100DC100007E407D1C7C46AB0BAA0AA909A808122B
:100DD1000800120A6EE47B107A27F9F8120B99AC1D
:100DE10000AD01AE02AF03E47B0AFAF9F8120B99E8
:100DF100AF038F14E50D2405121206E5112430FF0F
:100E0100120F12E50D2406121206E5122430FF120C
:100E11000F12E50D2407121206E5132430FF120FFD
:100E210012E50D2408121206E5142430FF020F12F8
:0C124300021BD8F002192710021527101A
:100EBD00D2AFD2A9758901AE1BAF1CAB07AA06E450
:100ECD00C39BFFE49AFE74019400FDE49400FCE4DE
:100EDD00FB7A01F9F8120FF68F8CAE1BAF1CAB0726
:100EED00AA06E4C39BFFE49AFE74019400FDE4940A
:100EFD0000FCE4FB7A01F9F8120FF6AF038F8AD2EA
:020F0D008C2234
:03000B0002107967
:10107900C0E0C0D0C28CC3E430A0129516F518E4C4
:101089009515F517F58C85188AC2A08010951AF563
:1010990018E49519F517F58C85188AD2A0D28CD049
:0410A900D0D0E03291
:04124F00C100C10118
:10126900D2AFD2A8D288D2AAD28A75B810D2B2D2B5
:02127900B3229E
:03000300021304E1
:03130400D20032E2
:03001300021307CE
:03130700D20132DE
:0F12BD00438920758DF3758780D28E75985022E6
:0812E7008F993099FDC2992294
:0812EF003098FDC298AF99226E
:03125300012A006D
:1010AD00120EBD1212BDE52A700C1212EF8F28051B
:1010BD002A7580F080F0E52AB4010C1212EF8F2909
:1010CD00052A75800F80DFE528F519E529F51AE465
:0410DD00F52A80D29E
:10080000EC4D6011E8497017ED33EC3304600DE4F2
:10081000FCFFFEFD22E933E8330470F8020ADA1225
:100820000AA558046009E4CC248150062850090226
:100830000AE4284003020AE1C0E0EB4A7044B980B0
:1008400006D0E0FB020AD0EF4E701CBD8008EBFF23
:10085000EAFEE9FD80EBE98DF0A4FEE5F00208E98F
:10086000E9CDF9EAFEEBFFEF89F0A4FCE5F0CE89D3
:10087000F0A42EFFE435F0CD89F0A42DFEE435F090
:100880008067EF4E7005BD80D780C3EF8BF0A4ACBE
:10089000F0EE8BF0A42CFCE435F0F8EF8AF0A42CF9
:1008A000E5F038FCE433CB8DF0A42CFCE5F03BF80C
:1008B000EE8AF0A42CFCE5F038F8E433CF89F0A4FC
:1008C0002CFCE5F038CF3400CE89F0A42FFFE5F002
:1008D0003EFEE433C98DF0A42EFEE5F039CD8AF05A
:1008E000A42FFFE5F03EFEE43DFD33D0E0FB5007D2
:1008F0000BBB000F020AE4EC2CFCEF33FFEE33FEDF
:06090000ED33FD020ABC0C
:10090600020AE4EC5D046005E859047003020ADAA1
:10091600120AA5580460F6EC4860F2EC7004FDFE7D
:10092600FF22C860DB2481C85009C39860025006C4
:10093600020AE19850CAF582E9294B4A7005AB8252
:10094600020AD075F0007C1A7880C3EF9BEE9AED10
:1009560099400DC3EF9BFFEE9AFEED99FDE842F03C
:10096600DC23ACF0D0E0FFD0E0FED0E0FDAB82208F
:10097600E7101BEB60BAEC2CFCEF33FFEE33FEED19
:1009860033FD020ABCE803F830E705C0F075F00055
:10099600EF2FFFEE33FEED33FD40B830E7C280AAFD
:1009A60074F8CC6480CCC86480C8F58204604FC3F8
:1009B600EB9FF5F0EA9E42F0E99D42F0E89C45F097
:1009C600603C501DE5825FFFE582D313CB5BCBF421
:1009D6002B5582FB50280ABA002409B9002008804A
:1009E6001DE5825BFBE582D313CF5FCFF4C3132FE4
:1009F6005582FF50090EBE00050DBD00010CC3EB6C
:100A06009FF5F0EA9E42F0E99D42F0E89C45F060D1
:090A160007CC4820E701B3EC22F3
:100A1F00ED33EC33600A047003BD8004ECB2E7FCE5
:010A2F0022A4
:100A300075F020800E75F010800575F0087D007E41
:100A4000007F003392D530D503120C2BEC334010CD
:100A5000EF33FFEE33FEED33FDEC33FCD5F0ED224A
:0E0A6000E5F0247EA2D513CC92E7CDCEFF2286
:100A6E00EDD2E7CD33EC3392D524814006E4FFFE80
:100A7E00FDFC22FCE4CFCECDCC24E0501174FF80DF
:100A8E00EDC3CC13CCCD13CDCE13CECF13CF04707C
:070A9E00F030D5DE020C2B45
:100AA500E9D2E7C933E833F892D5EDD2E7CD33EC97
:070AB50033FC5002B2D52210
:100ABC00EC30E7100FBF000C0EBE00080DBD00049B
:100ACC000BEB6014A2D5EB13FCED92E7FD2274FF47
:100ADC00FCFDFEFF22E480F8A2D574FF13FC7D80A0
:030AEC00E480EFB4
:100E3D000210ADE493A3F8E493A34003F68001F20E
:100E4D0008DFF48029E493A3F85407240CC8C333B6
:100E5D00C4540F4420C8834004F456800146F6DF85
:100E6D00E4800B0102040810204080901243E47EC0
:100E7D00019360BCA3FF543F30E509541FFEE4937A
:100E8D00A360010ECF54C025E060A840B8E493A341
:100E9D00FAE493A3F8E493A3C8C582C8CAC583CA6C
:100EAD00F0A3C8C582C8CAC583CADFE9DEE780BE24
:011256000097
:100AEF00BB010689828A83E0225002E722BBFE0205
:090AFF00E32289828A83E4932238
:100B0800BC000BBE0029EF8DF084FFADF022E4CCD1
:100B1800F875F008EF2FFFEE33FEEC33FCEE9DEC9A
:100B2800984005FCEE9DFE0FD5F0E9E4CEFD22EDE0
:100B3800F8F5F0EE8420D21CFEADF075F008EF2F2A
:100B4800FFED33FD4007985006D5F0F222C398FD1B
:050B58000FD5F0EA22B8
:100B5D0075F008758200EF2FFFEE33FECD33CDCC4F
:100B6D0033CCC58233C5829BED9AEC99E5829840D2
:100B7D000CF582EE9BFEED9AFDEC99FC0FD5F0D6AF
:100B8D00E4CEFBE4CDFAE4CCF9A88222B800C1B9D9
:100B9D000059BA002DEC8BF084CFCECDFCE5F0CB17
:100BAD00F97818EF2FFFEE33FEED33FDEC33FCEB50
:100BBD0033FB10D703994004EB99FB0FD8E5E4F90B
:100BCD00FA227818EF2FFFEE33FEED33FDEC33FCF8
:100BDD00C933C910D7059BE99A4007EC9BFCE99AEC
:100BED00F90FD8E0E4C9FAE4CCFB2275F010EF2F31
:100BFD00FFEE33FEED33FDCC33CCC833C810D70731
:100C0D009BEC9AE899400AED9BFDEC9AFCE899F86B
:0E0C1D000FD5F0DAE4CDFBE4CCFAE4C8F922FE
:100FF600C2D5E830E70FB2D5E4C39BFBE49AFAE426
:1010060099F9E498F8EC30E717B2D512102C120BC8
:1010160099E4C39BFBE49AFAE499F9E498F880030F
:10102600120B9930D50DE4C39FFFE49EFEE49DFDAF
:04103600E49CFC2218
:0E0C2B00C3E49FFFE49EFEE49DFDE49CFC22DA
:00000001FF
